{
  "_format": "hh-sol-artifact-1",
  "contractName": "LandOwnership",
  "sourceName": "contracts/land_ownership.sol",
  "abi": [
    {
      "inputs": [],
      "stateMutability": "nonpayable",
      "type": "constructor"
    },
    {
      "anonymous": false,
      "inputs": [
        {
          "indexed": false,
          "internalType": "uint256",
          "name": "ownershipId",
          "type": "uint256"
        }
      ],
      "name": "CloseSale",
      "type": "event"
    },
    {
      "anonymous": false,
      "inputs": [
        {
          "indexed": false,
          "internalType": "uint256",
          "name": "ownershipId",
          "type": "uint256"
        }
      ],
      "name": "InitiateSale",
      "type": "event"
    },
    {
      "inputs": [
        {
          "internalType": "uint256",
          "name": "ownershipId",
          "type": "uint256"
        }
      ],
      "name": "acceptSale",
      "outputs": [],
      "stateMutability": "nonpayable",
      "type": "function"
    },
    {
      "inputs": [
        {
          "internalType": "uint256",
          "name": "ownershipId",
          "type": "uint256"
        }
      ],
      "name": "acknowledgePayment",
      "outputs": [],
      "stateMutability": "nonpayable",
      "type": "function"
    },
    {
      "inputs": [
        {
          "internalType": "uint256",
          "name": "ownershipId",
          "type": "uint256"
        }
      ],
      "name": "approveDocs",
      "outputs": [],
      "stateMutability": "nonpayable",
      "type": "function"
    },
    {
      "inputs": [
        {
          "internalType": "bytes32[]",
          "name": "pixels",
          "type": "bytes32[]"
        },
        {
          "internalType": "address",
          "name": "buyer",
          "type": "address"
        }
      ],
      "name": "approveDocumentsAndMarkSale",
      "outputs": [],
      "stateMutability": "nonpayable",
      "type": "function"
    },
    {
      "inputs": [
        {
          "internalType": "uint256",
          "name": "ownershipId",
          "type": "uint256"
        }
      ],
      "name": "cancelSale",
      "outputs": [],
      "stateMutability": "nonpayable",
      "type": "function"
    },
    {
      "inputs": [],
      "name": "getOpenSales",
      "outputs": [
        {
          "components": [
            {
              "internalType": "address",
              "name": "owner",
              "type": "address"
            },
            {
              "internalType": "address",
              "name": "buyer",
              "type": "address"
            },
            {
              "internalType": "uint8",
              "name": "state",
              "type": "uint8"
            },
            {
              "internalType": "string[]",
              "name": "ipfsDocs",
              "type": "string[]"
            }
          ],
          "internalType": "struct LandOwnership.Ownership[]",
          "name": "",
          "type": "tuple[]"
        }
      ],
      "stateMutability": "view",
      "type": "function"
    },
    {
      "inputs": [
        {
          "internalType": "uint256",
          "name": "ownershipId",
          "type": "uint256"
        }
      ],
      "name": "getOwnershipInfo",
      "outputs": [
        {
          "components": [
            {
              "internalType": "address",
              "name": "owner",
              "type": "address"
            },
            {
              "internalType": "address",
              "name": "buyer",
              "type": "address"
            },
            {
              "internalType": "uint8",
              "name": "state",
              "type": "uint8"
            },
            {
              "internalType": "string[]",
              "name": "ipfsDocs",
              "type": "string[]"
            }
          ],
          "internalType": "struct LandOwnership.Ownership",
          "name": "",
          "type": "tuple"
        }
      ],
      "stateMutability": "view",
      "type": "function"
    },
    {
      "inputs": [
        {
          "internalType": "bytes32",
          "name": "pixelHash",
          "type": "bytes32"
        }
      ],
      "name": "getPixelHistory",
      "outputs": [
        {
          "components": [
            {
              "internalType": "address",
              "name": "owner",
              "type": "address"
            },
            {
              "internalType": "address",
              "name": "buyer",
              "type": "address"
            },
            {
              "internalType": "uint8",
              "name": "state",
              "type": "uint8"
            },
            {
              "internalType": "string[]",
              "name": "ipfsDocs",
              "type": "string[]"
            }
          ],
          "internalType": "struct LandOwnership.Ownership[]",
          "name": "",
          "type": "tuple[]"
        }
      ],
      "stateMutability": "view",
      "type": "function"
    },
    {
      "inputs": [
        {
          "internalType": "uint256",
          "name": "ownershipId",
          "type": "uint256"
        }
      ],
      "name": "initiatePayment",
      "outputs": [],
      "stateMutability": "nonpayable",
      "type": "function"
    },
    {
      "inputs": [
        {
          "internalType": "uint256",
          "name": "ownershipId",
          "type": "uint256"
        },
        {
          "internalType": "address",
          "name": "buyer",
          "type": "address"
        }
      ],
      "name": "initiateSale",
      "outputs": [],
      "stateMutability": "nonpayable",
      "type": "function"
    },
    {
      "inputs": [
        {
          "internalType": "bytes32[]",
          "name": "pixels",
          "type": "bytes32[]"
        },
        {
          "internalType": "address",
          "name": "buyer",
          "type": "address"
        }
      ],
      "name": "initiateSaleFromAdmin",
      "outputs": [],
      "stateMutability": "nonpayable",
      "type": "function"
    },
    {
      "inputs": [
        {
          "internalType": "uint256",
          "name": "ownershipId",
          "type": "uint256"
        }
      ],
      "name": "rejectDocs",
      "outputs": [],
      "stateMutability": "nonpayable",
      "type": "function"
    },
    {
      "inputs": [
        {
          "internalType": "string",
          "name": "ipfsUrl",
          "type": "string"
        },
        {
          "internalType": "uint256",
          "name": "ownershipId",
          "type": "uint256"
        }
      ],
      "name": "uploadBuyerDocs",
      "outputs": [],
      "stateMutability": "nonpayable",
      "type": "function"
    }
  ],
  "bytecode": "0x608060405260016000806101000a81548160ff021916908360ff1602179055506002600060016101000a81548160ff021916908360ff1602179055506003600060026101000a81548160ff021916908360ff1602179055506004600060036101000a81548160ff021916908360ff1602179055506005600060046101000a81548160ff021916908360ff1602179055506006600060056101000a81548160ff021916908360ff1602179055506007600060066101000a81548160ff021916908360ff1602179055506008600060076101000a81548160ff021916908360ff1602179055503480156100ef57600080fd5b5033600660006101000a81548173ffffffffffffffffffffffffffffffffffffffff021916908373ffffffffffffffffffffffffffffffffffffffff1602179055506001600581905550612e4c806101486000396000f3fe608060405234801561001057600080fd5b50600436106100cf5760003560e01c8063816d78b41161008c578063c9d96ac511610066578063c9d96ac5146101d2578063d058f7a214610202578063dcf52f131461021e578063f0abd6171461023a576100cf565b8063816d78b41461017e5780639dfa740b1461019a578063bd94b005146101b6576100cf565b8063090d7baf146100d457806309e949e8146100f05780635f64f7b31461010c5780636f5268f31461012857806378114d47146101465780637d42c32414610162575b600080fd5b6100ee60048036038101906100e991906123d0565b61026a565b005b61010a6004803603810190610105919061244d565b6103e4565b005b61012660048036038101906101219190612424565b610607565b005b610130610766565b60405161013d91906127bc565b60405180910390f35b610160600480360381019061015b9190612424565b610ad7565b005b61017c60048036038101906101779190612424565b610c36565b005b61019860048036038101906101939190612424565b610db7565b005b6101b460048036038101906101af9190612424565b610e96565b005b6101d060048036038101906101cb9190612424565b610f97565b005b6101ec60048036038101906101e79190612424565b6111b3565b6040516101f991906128be565b60405180910390f35b61021c60048036038101906102179190612353565b611382565b005b61023860048036038101906102339190612353565b611711565b005b610254600480360381019061024f91906123a7565b611c4f565b60405161026191906127bc565b60405180910390f35b6003600082815260200190815260200160002060010160009054906101000a900473ffffffffffffffffffffffffffffffffffffffff1673ffffffffffffffffffffffffffffffffffffffff163373ffffffffffffffffffffffffffffffffffffffff161461030e576040517f08c379a00000000000000000000000000000000000000000000000000000000081526004016103059061281e565b60405180910390fd5b600060029054906101000a900460ff1660ff166003600083815260200190815260200160002060010160149054906101000a900460ff1660ff161461035257600080fd5b60036000828152602001908152602001600020600201829080600181540180825580915050600190039060005260206000200160009091909190915090805190602001906103a1929190612097565b50600060039054906101000a900460ff166003600083815260200190815260200160002060010160146101000a81548160ff021916908360ff1602179055505050565b6003600083815260200190815260200160002060000160009054906101000a900473ffffffffffffffffffffffffffffffffffffffff1673ffffffffffffffffffffffffffffffffffffffff163373ffffffffffffffffffffffffffffffffffffffff1614610488576040517f08c379a000000000000000000000000000000000000000000000000000000000815260040161047f9061285e565b60405180910390fd5b60008054906101000a900460ff1660ff166003600084815260200190815260200160002060010160149054906101000a900460ff1660ff16146104ca57600080fd5b8073ffffffffffffffffffffffffffffffffffffffff166003600084815260200190815260200160002060000160009054906101000a900473ffffffffffffffffffffffffffffffffffffffff1673ffffffffffffffffffffffffffffffffffffffff16141561053957600080fd5b600060019054906101000a900460ff166003600084815260200190815260200160002060010160146101000a81548160ff021916908360ff160217905550806003600084815260200190815260200160002060010160006101000a81548173ffffffffffffffffffffffffffffffffffffffff021916908373ffffffffffffffffffffffffffffffffffffffff1602179055507f9f3b0ca3116e1594cb326770ab2d4cd61923eb099e15432b58c272b2c590a0b7826040516105fb91906128e0565b60405180910390a15050565b600060019054906101000a900460ff1660ff166003600083815260200190815260200160002060010160149054906101000a900460ff1660ff1614610681576040517f08c379a00000000000000000000000000000000000000000000000000000000081526004016106789061287e565b60405180910390fd5b3373ffffffffffffffffffffffffffffffffffffffff166003600083815260200190815260200160002060010160009054906101000a900473ffffffffffffffffffffffffffffffffffffffff1673ffffffffffffffffffffffffffffffffffffffff1614610725576040517f08c379a000000000000000000000000000000000000000000000000000000000815260040161071c9061283e565b60405180910390fd5b600060029054906101000a900460ff166003600083815260200190815260200160002060010160146101000a81548160ff021916908360ff16021790555050565b60606000805b6005548110156107d957600060019054906101000a900460ff1660ff166003600083815260200190815260200160002060010160149054906101000a900460ff1660ff1614156107c6576001826107c39190612a1c565b91505b80806107d190612ba1565b91505061076c565b5060008167ffffffffffffffff81111561081c577f4e487b7100000000000000000000000000000000000000000000000000000000600052604160045260246000fd5b60405190808252806020026020018201604052801561085557816020015b61084261211d565b81526020019060019003908161083a5790505b5090506000805b600554811015610acd57600060019054906101000a900460ff1660ff166003600083815260200190815260200160002060010160149054906101000a900460ff1660ff161415610aba57600360008281526020019081526020016000206040518060800160405290816000820160009054906101000a900473ffffffffffffffffffffffffffffffffffffffff1673ffffffffffffffffffffffffffffffffffffffff1673ffffffffffffffffffffffffffffffffffffffff1681526020016001820160009054906101000a900473ffffffffffffffffffffffffffffffffffffffff1673ffffffffffffffffffffffffffffffffffffffff1673ffffffffffffffffffffffffffffffffffffffff1681526020016001820160149054906101000a900460ff1660ff1660ff16815260200160028201805480602002602001604051908101604052809291908181526020016000905b82821015610a5e5783829060005260206000200180546109d190612b3e565b80601f01602080910402602001604051908101604052809291908181526020018280546109fd90612b3e565b8015610a4a5780601f10610a1f57610100808354040283529160200191610a4a565b820191906000526020600020905b815481529060010190602001808311610a2d57829003601f168201915b5050505050815260200190600101906109b2565b5050505081525050838381518110610a9f577f4e487b7100000000000000000000000000000000000000000000000000000000600052603260045260246000fd5b6020026020010181905250600182610ab79190612a1c565b91505b8080610ac590612ba1565b91505061085c565b5081935050505090565b6003600082815260200190815260200160002060010160009054906101000a900473ffffffffffffffffffffffffffffffffffffffff1673ffffffffffffffffffffffffffffffffffffffff163373ffffffffffffffffffffffffffffffffffffffff1614610b7b576040517f08c379a0000000000000000000000000000000000000000000000000000000008152600401610b729061287e565b60405180910390fd5b600060049054906101000a900460ff1660ff166003600083815260200190815260200160002060010160149054906101000a900460ff1660ff1614610bf5576040517f08c379a0000000000000000000000000000000000000000000000000000000008152600401610bec906127de565b60405180910390fd5b600060059054906101000a900460ff166003600083815260200190815260200160002060010160146101000a81548160ff021916908360ff16021790555050565b6003600082815260200190815260200160002060000160009054906101000a900473ffffffffffffffffffffffffffffffffffffffff1673ffffffffffffffffffffffffffffffffffffffff163373ffffffffffffffffffffffffffffffffffffffff161480610cf35750600660009054906101000a900473ffffffffffffffffffffffffffffffffffffffff1673ffffffffffffffffffffffffffffffffffffffff163373ffffffffffffffffffffffffffffffffffffffff16145b610d32576040517f08c379a0000000000000000000000000000000000000000000000000000000008152600401610d299061281e565b60405180910390fd5b600060059054906101000a900460ff1660ff166003600083815260200190815260200160002060010160149054906101000a900460ff1660ff1614610d7657600080fd5b600060069054906101000a900460ff166003600083815260200190815260200160002060010160146101000a81548160ff021916908360ff16021790555050565b600660009054906101000a900473ffffffffffffffffffffffffffffffffffffffff1673ffffffffffffffffffffffffffffffffffffffff163373ffffffffffffffffffffffffffffffffffffffff1614610e1157600080fd5b600060039054906101000a900460ff1660ff166003600083815260200190815260200160002060010160149054906101000a900460ff1660ff1614610e5557600080fd5b600060049054906101000a900460ff166003600083815260200190815260200160002060010160146101000a81548160ff021916908360ff16021790555050565b600660009054906101000a900473ffffffffffffffffffffffffffffffffffffffff1673ffffffffffffffffffffffffffffffffffffffff163373ffffffffffffffffffffffffffffffffffffffff1614610ef057600080fd5b600060039054906101000a900460ff1660ff166003600083815260200190815260200160002060010160149054906101000a900460ff1660ff1614610f3457600080fd5b600360008281526020019081526020016000206002016000610f569190612174565b600060029054906101000a900460ff166003600083815260200190815260200160002060010160146101000a81548160ff021916908360ff16021790555050565b60046003600083815260200190815260200160002060010160149054906101000a900460ff1660ff1610610fca57600080fd5b600660009054906101000a900473ffffffffffffffffffffffffffffffffffffffff1673ffffffffffffffffffffffffffffffffffffffff163373ffffffffffffffffffffffffffffffffffffffff16148061108757506003600082815260200190815260200160002060000160009054906101000a900473ffffffffffffffffffffffffffffffffffffffff1673ffffffffffffffffffffffffffffffffffffffff163373ffffffffffffffffffffffffffffffffffffffff16145b806110f357506003600082815260200190815260200160002060010160009054906101000a900473ffffffffffffffffffffffffffffffffffffffff1673ffffffffffffffffffffffffffffffffffffffff163373ffffffffffffffffffffffffffffffffffffffff16145b6110fc57600080fd5b60006003600083815260200190815260200160002060010160006101000a81548173ffffffffffffffffffffffffffffffffffffffff021916908373ffffffffffffffffffffffffffffffffffffffff1602179055506003600082815260200190815260200160002060020160006111749190612174565b60008054906101000a900460ff166003600083815260200190815260200160002060010160146101000a81548160ff021916908360ff16021790555050565b6111bb61211d565b600360008381526020019081526020016000206040518060800160405290816000820160009054906101000a900473ffffffffffffffffffffffffffffffffffffffff1673ffffffffffffffffffffffffffffffffffffffff1673ffffffffffffffffffffffffffffffffffffffff1681526020016001820160009054906101000a900473ffffffffffffffffffffffffffffffffffffffff1673ffffffffffffffffffffffffffffffffffffffff1673ffffffffffffffffffffffffffffffffffffffff1681526020016001820160149054906101000a900460ff1660ff1660ff16815260200160028201805480602002602001604051908101604052809291908181526020016000905b828210156113735783829060005260206000200180546112e690612b3e565b80601f016020809104026020016040519081016040528092919081815260200182805461131290612b3e565b801561135f5780601f106113345761010080835404028352916020019161135f565b820191906000526020600020905b81548152906001019060200180831161134257829003601f168201915b5050505050815260200190600101906112c7565b50505050815250509050919050565b600660009054906101000a900473ffffffffffffffffffffffffffffffffffffffff1673ffffffffffffffffffffffffffffffffffffffff163373ffffffffffffffffffffffffffffffffffffffff1614611412576040517f08c379a00000000000000000000000000000000000000000000000000000000081526004016114099061289e565b60405180910390fd5b60005b82518160ff1610156115a957600060016000858460ff1681518110611463577f4e487b7100000000000000000000000000000000000000000000000000000000600052603260045260246000fd5b6020026020010151815260200190815260200160002054146114ba576040517f08c379a00000000000000000000000000000000000000000000000000000000081526004016114b1906127fe565b60405180910390fd5b60055460016000858460ff16815181106114fd577f4e487b7100000000000000000000000000000000000000000000000000000000600052603260045260246000fd5b6020026020010151815260200190815260200160002081905550600260006005548152602001908152602001600020838260ff1681518110611568577f4e487b7100000000000000000000000000000000000000000000000000000000600052603260045260246000fd5b6020026020010151908060018154018082558091505060019003906000526020600020016000909190919091505580806115a190612bea565b915050611415565b50600060019054906101000a900460ff1660036000600554815260200190815260200160002060010160146101000a81548160ff021916908360ff160217905550600660009054906101000a900473ffffffffffffffffffffffffffffffffffffffff1660036000600554815260200190815260200160002060000160006101000a81548173ffffffffffffffffffffffffffffffffffffffff021916908373ffffffffffffffffffffffffffffffffffffffff1602179055508060036000600554815260200190815260200160002060010160006101000a81548173ffffffffffffffffffffffffffffffffffffffff021916908373ffffffffffffffffffffffffffffffffffffffff1602179055507f9f3b0ca3116e1594cb326770ab2d4cd61923eb099e15432b58c272b2c590a0b76005546040516116eb91906128e0565b60405180910390a16001600560008282546117069190612a1c565b925050819055505050565b600660009054906101000a900473ffffffffffffffffffffffffffffffffffffffff1673ffffffffffffffffffffffffffffffffffffffff163373ffffffffffffffffffffffffffffffffffffffff161461176b57600080fd5b8060036000600554815260200190815260200160002060000160006101000a81548173ffffffffffffffffffffffffffffffffffffffff021916908373ffffffffffffffffffffffffffffffffffffffff16021790555060008054906101000a900460ff1660036000600554815260200190815260200160002060010160146101000a81548160ff021916908360ff160217905550600160055461180f9190612a1c565b6005819055506000602067ffffffffffffffff811115611858577f4e487b7100000000000000000000000000000000000000000000000000000000600052604160045260246000fd5b6040519080825280602002602001820160405280156118865781602001602082028036833780820191505090505b5090506000805b84518160ff161015611b2a576000858260ff16815181106118d7577f4e487b7100000000000000000000000000000000000000000000000000000000600052603260045260246000fd5b602002602001015190508473ffffffffffffffffffffffffffffffffffffffff16600360006001600085815260200190815260200160002054815260200190815260200160002060010160009054906101000a900473ffffffffffffffffffffffffffffffffffffffff1673ffffffffffffffffffffffffffffffffffffffff161461196257600080fd5b600060069054906101000a900460ff1660ff16600360006001600085815260200190815260200160002054815260200190815260200160002060010160149054906101000a900460ff1660ff16146119b957600080fd5b60026000600554815260200190815260200160002081908060018154018082558091505060019003906000526020600020016000909190919091505560055460016000838152602001908152602001600020819055506000805b8460ff168160ff161015611a9b576001600084815260200190815260200160002054868260ff1681518110611a71577f4e487b7100000000000000000000000000000000000000000000000000000000600052603260045260246000fd5b60200260200101511415611a885760019150611a9b565b8080611a9390612bea565b915050611a13565b50600015158115151415611b15576001600083815260200190815260200160002054858560ff1681518110611af9577f4e487b7100000000000000000000000000000000000000000000000000000000600052603260045260246000fd5b602002602001018181525050600184611b129190612a72565b93505b50508080611b2290612bea565b91505061188d565b5060005b8160ff168160ff161015611c485760008054906101000a900460ff1660036000858460ff1681518110611b8a577f4e487b7100000000000000000000000000000000000000000000000000000000600052603260045260246000fd5b6020026020010151815260200190815260200160002060010160146101000a81548160ff021916908360ff1602179055507ff2ff7603d9b146f16da0b6f93f871b52e6e3124b9391cf6a480a2e41a988e91f838260ff1681518110611c18577f4e487b7100000000000000000000000000000000000000000000000000000000600052603260045260246000fd5b6020026020010151604051611c2d91906128e0565b60405180910390a18080611c4090612bea565b915050611b2e565b5050505050565b60606000805b600554811015611d2b5760008060005b6002600082815260200190815260200160002080549050811015611cff5786600260008681526020019081526020016000208281548110611ccf577f4e487b7100000000000000000000000000000000000000000000000000000000600052603260045260246000fd5b90600052602060002001541415611cec5760019250809150611cff565b8080611cf790612ba1565b915050611c65565b508115611d1657600184611d139190612a1c565b93505b50508080611d2390612ba1565b915050611c55565b5060008167ffffffffffffffff811115611d6e577f4e487b7100000000000000000000000000000000000000000000000000000000600052604160045260246000fd5b604051908082528060200260200182016040528015611da757816020015b611d9461211d565b815260200190600190039081611d8c5790505b5090506000805b60055481101561208b5760008060005b6002600082815260200190815260200160002080549050811015611e585788600260008681526020019081526020016000208281548110611e28577f4e487b7100000000000000000000000000000000000000000000000000000000600052603260045260246000fd5b90600052602060002001541415611e455760019250809150611e58565b8080611e5090612ba1565b915050611dbe565b50811561207657600360008281526020019081526020016000206040518060800160405290816000820160009054906101000a900473ffffffffffffffffffffffffffffffffffffffff1673ffffffffffffffffffffffffffffffffffffffff1673ffffffffffffffffffffffffffffffffffffffff1681526020016001820160009054906101000a900473ffffffffffffffffffffffffffffffffffffffff1673ffffffffffffffffffffffffffffffffffffffff1673ffffffffffffffffffffffffffffffffffffffff1681526020016001820160149054906101000a900460ff1660ff1660ff16815260200160028201805480602002602001604051908101604052809291908181526020016000905b82821015612017578382906000526020600020018054611f8a90612b3e565b80601f0160208091040260200160405190810160405280929190818152602001828054611fb690612b3e565b80156120035780601f10611fd857610100808354040283529160200191612003565b820191906000526020600020905b815481529060010190602001808311611fe657829003601f168201915b505050505081526020019060010190611f6b565b5050505081525050858560ff168151811061205b577f4e487b7100000000000000000000000000000000000000000000000000000000600052603260045260246000fd5b60200260200101819052506001846120739190612a72565b93505b5050808061208390612ba1565b915050611dae565b50819350505050919050565b8280546120a390612b3e565b90600052602060002090601f0160209004810192826120c5576000855561210c565b82601f106120de57805160ff191683800117855561210c565b8280016001018555821561210c579182015b8281111561210b5782518255916020019190600101906120f0565b5b5090506121199190612195565b5090565b6040518060800160405280600073ffffffffffffffffffffffffffffffffffffffff168152602001600073ffffffffffffffffffffffffffffffffffffffff168152602001600060ff168152602001606081525090565b508054600082559060005260206000209081019061219291906121b2565b50565b5b808211156121ae576000816000905550600101612196565b5090565b5b808211156121d257600081816121c991906121d6565b506001016121b3565b5090565b5080546121e290612b3e565b6000825580601f106121f45750612213565b601f0160209004906000526020600020908101906122129190612195565b5b50565b600061222961222484612920565b6128fb565b9050808382526020820190508285602086028201111561224857600080fd5b60005b85811015612278578161225e88826122ff565b84526020840193506020830192505060018101905061224b565b5050509392505050565b60006122956122908461294c565b6128fb565b9050828152602081018484840111156122ad57600080fd5b6122b8848285612afc565b509392505050565b6000813590506122cf81612dd1565b92915050565b600082601f8301126122e657600080fd5b81356122f6848260208601612216565b91505092915050565b60008135905061230e81612de8565b92915050565b600082601f83011261232557600080fd5b8135612335848260208601612282565b91505092915050565b60008135905061234d81612dff565b92915050565b6000806040838503121561236657600080fd5b600083013567ffffffffffffffff81111561238057600080fd5b61238c858286016122d5565b925050602061239d858286016122c0565b9150509250929050565b6000602082840312156123b957600080fd5b60006123c7848285016122ff565b91505092915050565b600080604083850312156123e357600080fd5b600083013567ffffffffffffffff8111156123fd57600080fd5b61240985828601612314565b925050602061241a8582860161233e565b9150509250929050565b60006020828403121561243657600080fd5b60006124448482850161233e565b91505092915050565b6000806040838503121561246057600080fd5b600061246e8582860161233e565b925050602061247f858286016122c0565b9150509250929050565b600061249583836125aa565b905092915050565b60006124a983836126d8565b905092915050565b6124ba81612aa9565b82525050565b60006124cb8261299d565b6124d581856129d8565b9350836020820285016124e78561297d565b8060005b8581101561252357848403895281516125048582612489565b945061250f836129be565b925060208a019950506001810190506124eb565b50829750879550505050505092915050565b6000612540826129a8565b61254a81856129e9565b93508360208202850161255c8561298d565b8060005b858110156125985784840389528151612579858261249d565b9450612584836129cb565b925060208a01995050600181019050612560565b50829750879550505050505092915050565b60006125b5826129b3565b6125bf81856129fa565b93506125cf818560208601612b0b565b6125d881612ca1565b840191505092915050565b60006125f0600283612a0b565b91506125fb82612cb2565b602082019050919050565b6000612613600183612a0b565b915061261e82612cdb565b602082019050919050565b6000612636600283612a0b565b915061264182612d04565b602082019050919050565b6000612659600383612a0b565b915061266482612d2d565b602082019050919050565b600061267c600283612a0b565b915061268782612d56565b602082019050919050565b600061269f600283612a0b565b91506126aa82612d7f565b602082019050919050565b60006126c2600283612a0b565b91506126cd82612da8565b602082019050919050565b60006080830160008301516126f060008601826124b1565b50602083015161270360208601826124b1565b50604083015161271660408601826127ad565b506060830151848203606086015261272e82826124c0565b9150508091505092915050565b600060808301600083015161275360008601826124b1565b50602083015161276660208601826124b1565b50604083015161277960408601826127ad565b506060830151848203606086015261279182826124c0565b9150508091505092915050565b6127a781612ae5565b82525050565b6127b681612aef565b82525050565b600060208201905081810360008301526127d68184612535565b905092915050565b600060208201905081810360008301526127f7816125e3565b9050919050565b6000602082019050818103600083015261281781612606565b9050919050565b6000602082019050818103600083015261283781612629565b9050919050565b600060208201905081810360008301526128578161264c565b9050919050565b600060208201905081810360008301526128778161266f565b9050919050565b6000602082019050818103600083015261289781612692565b9050919050565b600060208201905081810360008301526128b7816126b5565b9050919050565b600060208201905081810360008301526128d8818461273b565b905092915050565b60006020820190506128f5600083018461279e565b92915050565b6000612905612916565b90506129118282612b70565b919050565b6000604051905090565b600067ffffffffffffffff82111561293b5761293a612c72565b5b602082029050602081019050919050565b600067ffffffffffffffff82111561296757612966612c72565b5b61297082612ca1565b9050602081019050919050565b6000819050602082019050919050565b6000819050602082019050919050565b600081519050919050565b600081519050919050565b600081519050919050565b6000602082019050919050565b6000602082019050919050565b600082825260208201905092915050565b600082825260208201905092915050565b600082825260208201905092915050565b600082825260208201905092915050565b6000612a2782612ae5565b9150612a3283612ae5565b9250827fffffffffffffffffffffffffffffffffffffffffffffffffffffffffffffffff03821115612a6757612a66612c14565b5b828201905092915050565b6000612a7d82612aef565b9150612a8883612aef565b92508260ff03821115612a9e57612a9d612c14565b5b828201905092915050565b6000612ab482612ac5565b9050919050565b6000819050919050565b600073ffffffffffffffffffffffffffffffffffffffff82169050919050565b6000819050919050565b600060ff82169050919050565b82818337600083830152505050565b60005b83811015612b29578082015181840152602081019050612b0e565b83811115612b38576000848401525b50505050565b60006002820490506001821680612b5657607f821691505b60208210811415612b6a57612b69612c43565b5b50919050565b612b7982612ca1565b810181811067ffffffffffffffff82111715612b9857612b97612c72565b5b80604052505050565b6000612bac82612ae5565b91507fffffffffffffffffffffffffffffffffffffffffffffffffffffffffffffffff821415612bdf57612bde612c14565b5b600182019050919050565b6000612bf582612aef565b915060ff821415612c0957612c08612c14565b5b600182019050919050565b7f4e487b7100000000000000000000000000000000000000000000000000000000600052601160045260246000fd5b7f4e487b7100000000000000000000000000000000000000000000000000000000600052602260045260246000fd5b7f4e487b7100000000000000000000000000000000000000000000000000000000600052604160045260246000fd5b6000601f19601f8301169050919050565b7f4535000000000000000000000000000000000000000000000000000000000000600082015250565b7f4500000000000000000000000000000000000000000000000000000000000000600082015250565b7f4536000000000000000000000000000000000000000000000000000000000000600082015250565b7f4531300000000000000000000000000000000000000000000000000000000000600082015250565b7f4531000000000000000000000000000000000000000000000000000000000000600082015250565b7f4534000000000000000000000000000000000000000000000000000000000000600082015250565b7f4530000000000000000000000000000000000000000000000000000000000000600082015250565b612dda81612aa9565b8114612de557600080fd5b50565b612df181612abb565b8114612dfc57600080fd5b50565b612e0881612ae5565b8114612e1357600080fd5b5056fea2646970667358221220f9cdf6f6c46966f67e4f868c13c5ee2120053106d9062fd5e53c916b8ed1d16264736f6c63430008010033",
  "linkReferences": {},
  "deployedLinkReferences": {}
}